{
  "_format": "hh-sol-artifact-1",
  "contractName": "Coffee",
  "sourceName": "contracts/BuyMeACoffee.sol",
  "abi": [
    {
      "inputs": [
        {
          "internalType": "string",
          "name": "_firstMessage",
          "type": "string"
        }
      ],
      "stateMutability": "nonpayable",
      "type": "constructor"
    },
    {
      "inputs": [],
      "name": "getLastMessage",
      "outputs": [
        {
          "internalType": "string",
          "name": "",
          "type": "string"
        }
      ],
      "stateMutability": "view",
      "type": "function"
    },
    {
      "inputs": [
        {
          "internalType": "string",
          "name": "_msg",
          "type": "string"
        }
      ],
      "name": "sendFundAndMessage",
      "outputs": [],
      "stateMutability": "payable",
      "type": "function"
    },
    {
      "inputs": [],
      "name": "withdrawFunds",
      "outputs": [],
      "stateMutability": "nonpayable",
      "type": "function"
    }
  ],
  "bytecode": "0x60806040523480156200001157600080fd5b5060405162000fab38038062000fab833981810160405281019062000037919062000223565b336000806101000a81548173ffffffffffffffffffffffffffffffffffffffff021916908373ffffffffffffffffffffffffffffffffffffffff1602179055508060019081620000889190620004bf565b5050620005a6565b6000604051905090565b600080fd5b600080fd5b600080fd5b600080fd5b6000601f19601f8301169050919050565b7f4e487b7100000000000000000000000000000000000000000000000000000000600052604160045260246000fd5b620000f982620000ae565b810181811067ffffffffffffffff821117156200011b576200011a620000bf565b5b80604052505050565b60006200013062000090565b90506200013e8282620000ee565b919050565b600067ffffffffffffffff821115620001615762000160620000bf565b5b6200016c82620000ae565b9050602081019050919050565b60005b83811015620001995780820151818401526020810190506200017c565b60008484015250505050565b6000620001bc620001b68462000143565b62000124565b905082815260208101848484011115620001db57620001da620000a9565b5b620001e884828562000179565b509392505050565b600082601f830112620002085762000207620000a4565b5b81516200021a848260208601620001a5565b91505092915050565b6000602082840312156200023c576200023b6200009a565b5b600082015167ffffffffffffffff8111156200025d576200025c6200009f565b5b6200026b84828501620001f0565b91505092915050565b600081519050919050565b7f4e487b7100000000000000000000000000000000000000000000000000000000600052602260045260246000fd5b60006002820490506001821680620002c757607f821691505b602082108103620002dd57620002dc6200027f565b5b50919050565b60008190508160005260206000209050919050565b60006020601f8301049050919050565b600082821b905092915050565b600060088302620003477fffffffffffffffffffffffffffffffffffffffffffffffffffffffffffffffff8262000308565b62000353868362000308565b95508019841693508086168417925050509392505050565b6000819050919050565b6000819050919050565b6000620003a06200039a62000394846200036b565b62000375565b6200036b565b9050919050565b6000819050919050565b620003bc836200037f565b620003d4620003cb82620003a7565b84845462000315565b825550505050565b600090565b620003eb620003dc565b620003f8818484620003b1565b505050565b5b81811015620004205762000414600082620003e1565b600181019050620003fe565b5050565b601f8211156200046f576200043981620002e3565b6200044484620002f8565b8101602085101562000454578190505b6200046c6200046385620002f8565b830182620003fd565b50505b505050565b600082821c905092915050565b6000620004946000198460080262000474565b1980831691505092915050565b6000620004af838362000481565b9150826002028217905092915050565b620004ca8262000274565b67ffffffffffffffff811115620004e657620004e5620000bf565b5b620004f28254620002ae565b620004ff82828562000424565b600060209050601f83116001811462000537576000841562000522578287015190505b6200052e8582620004a1565b8655506200059e565b601f1984166200054786620002e3565b60005b8281101562000571578489015182556001820191506020850194506020810190506200054a565b868310156200059157848901516200058d601f89168262000481565b8355505b6001600288020188555050505b505050505050565b6109f580620005b66000396000f3fe6080604052600436106100345760003560e01c806324600fc314610039578063526bf76e146100505780637b58f30a1461007b575b600080fd5b34801561004557600080fd5b5061004e610097565b005b34801561005c57600080fd5b506100656101fb565b6040516100729190610373565b60405180910390f35b610095600480360381019061009091906104de565b61028d565b005b60008054906101000a900473ffffffffffffffffffffffffffffffffffffffff1673ffffffffffffffffffffffffffffffffffffffff163373ffffffffffffffffffffffffffffffffffffffff1614610125576040517f08c379a000000000000000000000000000000000000000000000000000000000815260040161011c90610599565b60405180910390fd5b600047905060008060009054906101000a900473ffffffffffffffffffffffffffffffffffffffff1673ffffffffffffffffffffffffffffffffffffffff1682604051610171906105ea565b60006040518083038185875af1925050503d80600081146101ae576040519150601f19603f3d011682016040523d82523d6000602084013e6101b3565b606091505b50509050806101f7576040517f08c379a00000000000000000000000000000000000000000000000000000000081526004016101ee9061064b565b60405180910390fd5b5050565b60606001805461020a9061069a565b80601f01602080910402602001604051908101604052809291908181526020018280546102369061069a565b80156102835780601f1061025857610100808354040283529160200191610283565b820191906000526020600020905b81548152906001019060200180831161026657829003601f168201915b5050505050905090565b600034116102d0576040517f08c379a00000000000000000000000000000000000000000000000000000000081526004016102c790610717565b60405180910390fd5b80600190816102df91906108ed565b5050565b600081519050919050565b600082825260208201905092915050565b60005b8381101561031d578082015181840152602081019050610302565b60008484015250505050565b6000601f19601f8301169050919050565b6000610345826102e3565b61034f81856102ee565b935061035f8185602086016102ff565b61036881610329565b840191505092915050565b6000602082019050818103600083015261038d818461033a565b905092915050565b6000604051905090565b600080fd5b600080fd5b600080fd5b600080fd5b7f4e487b7100000000000000000000000000000000000000000000000000000000600052604160045260246000fd5b6103eb82610329565b810181811067ffffffffffffffff8211171561040a576104096103b3565b5b80604052505050565b600061041d610395565b905061042982826103e2565b919050565b600067ffffffffffffffff821115610449576104486103b3565b5b61045282610329565b9050602081019050919050565b82818337600083830152505050565b600061048161047c8461042e565b610413565b90508281526020810184848401111561049d5761049c6103ae565b5b6104a884828561045f565b509392505050565b600082601f8301126104c5576104c46103a9565b5b81356104d584826020860161046e565b91505092915050565b6000602082840312156104f4576104f361039f565b5b600082013567ffffffffffffffff811115610512576105116103a4565b5b61051e848285016104b0565b91505092915050565b7f4f6e6c79206f776e65722063616e207769746864726177207468652066756e6460008201527f7300000000000000000000000000000000000000000000000000000000000000602082015250565b60006105836021836102ee565b915061058e82610527565b604082019050919050565b600060208201905081810360008301526105b281610576565b9050919050565b600081905092915050565b50565b60006105d46000836105b9565b91506105df826105c4565b600082019050919050565b60006105f5826105c7565b9150819050919050565b7f5472616e73666572206661696c65640000000000000000000000000000000000600082015250565b6000610635600f836102ee565b9150610640826105ff565b602082019050919050565b6000602082019050818103600083015261066481610628565b9050919050565b7f4e487b7100000000000000000000000000000000000000000000000000000000600052602260045260246000fd5b600060028204905060018216806106b257607f821691505b6020821081036106c5576106c461066b565b5b50919050565b7f506c656173652073656e6420736f6d652066756e647300000000000000000000600082015250565b60006107016016836102ee565b915061070c826106cb565b602082019050919050565b60006020820190508181036000830152610730816106f4565b9050919050565b60008190508160005260206000209050919050565b60006020601f8301049050919050565b600082821b905092915050565b6000600883026107997fffffffffffffffffffffffffffffffffffffffffffffffffffffffffffffffff8261075c565b6107a3868361075c565b95508019841693508086168417925050509392505050565b6000819050919050565b6000819050919050565b60006107ea6107e56107e0846107bb565b6107c5565b6107bb565b9050919050565b6000819050919050565b610804836107cf565b610818610810826107f1565b848454610769565b825550505050565b600090565b61082d610820565b6108388184846107fb565b505050565b5b8181101561085c57610851600082610825565b60018101905061083e565b5050565b601f8211156108a15761087281610737565b61087b8461074c565b8101602085101561088a578190505b61089e6108968561074c565b83018261083d565b50505b505050565b600082821c905092915050565b60006108c4600019846008026108a6565b1980831691505092915050565b60006108dd83836108b3565b9150826002028217905092915050565b6108f6826102e3565b67ffffffffffffffff81111561090f5761090e6103b3565b5b610919825461069a565b610924828285610860565b600060209050601f8311600181146109575760008415610945578287015190505b61094f85826108d1565b8655506109b7565b601f19841661096586610737565b60005b8281101561098d57848901518255600182019150602085019450602081019050610968565b868310156109aa57848901516109a6601f8916826108b3565b8355505b6001600288020188555050505b50505050505056fea264697066735822122039945eb28c3923df2f8daff57a5112b4741a2bbdf96bf7ece557bc10da1ebceb64736f6c63430008130033",
  "linkReferences": {},
  "deployedLinkReferences": {}
}